{
  "contractName": "Voting",
  "abi": [
    {
      "inputs": [],
      "stateMutability": "nonpayable",
      "type": "constructor"
    },
    {
      "anonymous": false,
      "inputs": [
        {
          "indexed": false,
          "internalType": "string",
          "name": "name",
          "type": "string"
        }
      ],
      "name": "CandidateAdded",
      "type": "event"
    },
    {
      "anonymous": false,
      "inputs": [
        {
          "indexed": false,
          "internalType": "string",
          "name": "candidate",
          "type": "string"
        },
        {
          "indexed": false,
          "internalType": "address",
          "name": "voter",
          "type": "address"
        }
      ],
      "name": "Voted",
      "type": "event"
    },
    {
      "anonymous": false,
      "inputs": [
        {
          "indexed": false,
          "internalType": "string",
          "name": "winner",
          "type": "string"
        }
      ],
      "name": "WinnerDeclared",
      "type": "event"
    },
    {
      "inputs": [],
      "name": "manager",
      "outputs": [
        {
          "internalType": "address",
          "name": "",
          "type": "address"
        }
      ],
      "stateMutability": "view",
      "type": "function",
      "constant": true
    },
    {
      "inputs": [
        {
          "internalType": "string",
          "name": "name",
          "type": "string"
        }
      ],
      "name": "addCandidate",
      "outputs": [],
      "stateMutability": "payable",
      "type": "function",
      "payable": true
    },
    {
      "inputs": [
        {
          "internalType": "string",
          "name": "candidate",
          "type": "string"
        }
      ],
      "name": "vote",
      "outputs": [],
      "stateMutability": "nonpayable",
      "type": "function"
    },
    {
      "inputs": [],
      "name": "getWinner",
      "outputs": [
        {
          "internalType": "string",
          "name": "",
          "type": "string"
        }
      ],
      "stateMutability": "view",
      "type": "function",
      "constant": true
    },
    {
      "inputs": [],
      "name": "getBalance",
      "outputs": [
        {
          "internalType": "uint256",
          "name": "",
          "type": "uint256"
        }
      ],
      "stateMutability": "view",
      "type": "function",
      "constant": true
    },
    {
      "inputs": [],
      "name": "withdraw",
      "outputs": [],
      "stateMutability": "nonpayable",
      "type": "function"
    }
  ],
  "bytecode": "0x608060405234801561001057600080fd5b50336000806101000a81548173ffffffffffffffffffffffffffffffffffffffff021916908373ffffffffffffffffffffffffffffffffffffffff16021790555061114c806100606000396000f3fe6080604052600436106100555760003560e01c806312065fe01461005a5780633ccfd60b14610085578063462e91ec1461009c578063481c6a75146100b85780638e7ea5b2146100e3578063fc36e15b1461010e575b600080fd5b34801561006657600080fd5b5061006f610137565b60405161007c9190610ec7565b60405180910390f35b34801561009157600080fd5b5061009a61013f565b005b6100b660048036038101906100b191906109ac565b610236565b005b3480156100c457600080fd5b506100cd610452565b6040516100da9190610d7a565b60405180910390f35b3480156100ef57600080fd5b506100f8610476565b6040516101059190610d95565b60405180910390f35b34801561011a57600080fd5b50610135600480360381019061013091906109ac565b6106d8565b005b600047905090565b60008054906101000a900473ffffffffffffffffffffffffffffffffffffffff1673ffffffffffffffffffffffffffffffffffffffff163373ffffffffffffffffffffffffffffffffffffffff16146101cd576040517f08c379a00000000000000000000000000000000000000000000000000000000081526004016101c490610e07565b60405180910390fd5b60008054906101000a900473ffffffffffffffffffffffffffffffffffffffff1673ffffffffffffffffffffffffffffffffffffffff166108fc479081150290604051600060405180830381858888f19350505050158015610233573d6000803e3d6000fd5b50565b60008054906101000a900473ffffffffffffffffffffffffffffffffffffffff1673ffffffffffffffffffffffffffffffffffffffff163373ffffffffffffffffffffffffffffffffffffffff16146102c4576040517f08c379a00000000000000000000000000000000000000000000000000000000081526004016102bb90610e87565b60405180910390fd5b60006001826040516102d69190610d4c565b908152602001604051809103902060000180546102f290610ffd565b905014610334576040517f08c379a000000000000000000000000000000000000000000000000000000000815260040161032b90610e67565b60405180910390fd5b662386f26fc1000034101561037e576040517f08c379a000000000000000000000000000000000000000000000000000000000815260040161037590610e27565b60405180910390fd5b604051806040016040528082815260200160008152506001826040516103a49190610d4c565b908152602001604051809103902060008201518160000190805190602001906103ce9291906108a1565b50602082015181600101559050506003819080600181540180825580915050600190039060005260206000200160009091909190915090805190602001906104179291906108a1565b507ff29562dad1599aea0ebb142466120aab326d5efa8f839df82a9c064bf78e8938816040516104479190610d95565b60405180910390a150565b60008054906101000a900473ffffffffffffffffffffffffffffffffffffffff1681565b606060008054906101000a900473ffffffffffffffffffffffffffffffffffffffff1673ffffffffffffffffffffffffffffffffffffffff163373ffffffffffffffffffffffffffffffffffffffff1614610506576040517f08c379a00000000000000000000000000000000000000000000000000000000081526004016104fd90610e47565b60405180910390fd5b60606000805b6003805490508110156106cf5781600160038381548110610556577f4e487b7100000000000000000000000000000000000000000000000000000000600052603260045260246000fd5b9060005260206000200160405161056d9190610d63565b90815260200160405180910390206001015411156106bc576001600382815481106105c1577f4e487b7100000000000000000000000000000000000000000000000000000000600052603260045260246000fd5b906000526020600020016040516105d89190610d63565b908152602001604051809103902060010154915060038181548110610626577f4e487b7100000000000000000000000000000000000000000000000000000000600052603260045260246000fd5b90600052602060002001805461063b90610ffd565b80601f016020809104026020016040519081016040528092919081815260200182805461066790610ffd565b80156106b45780601f10610689576101008083540402835291602001916106b4565b820191906000526020600020905b81548152906001019060200180831161069757829003601f168201915b505050505092505b80806106c79061102f565b91505061050c565b50819250505090565b600260003373ffffffffffffffffffffffffffffffffffffffff1673ffffffffffffffffffffffffffffffffffffffff16815260200190815260200160002060009054906101000a900460ff1615610765576040517f08c379a000000000000000000000000000000000000000000000000000000000815260040161075c90610ea7565b60405180910390fd5b60006001826040516107779190610d4c565b9081526020016040518091039020600001805461079390610ffd565b905014156107d6576040517f08c379a00000000000000000000000000000000000000000000000000000000081526004016107cd90610de7565b60405180910390fd5b6001816040516107e69190610d4c565b908152602001604051809103902060010160008154809291906108089061102f565b91905055506001600260003373ffffffffffffffffffffffffffffffffffffffff1673ffffffffffffffffffffffffffffffffffffffff16815260200190815260200160002060006101000a81548160ff0219169083151502179055507f92f9fa717af6db1d80f97dd1279605ad261a3be20a4347a15950fa26f3ff631a8133604051610896929190610db7565b60405180910390a150565b8280546108ad90610ffd565b90600052602060002090601f0160209004810192826108cf5760008555610916565b82601f106108e857805160ff1916838001178555610916565b82800160010185558215610916579182015b828111156109155782518255916020019190600101906108fa565b5b5090506109239190610927565b5090565b5b80821115610940576000816000905550600101610928565b5090565b600061095761095284610f13565b610ee2565b90508281526020810184848401111561096f57600080fd5b61097a848285610fbb565b509392505050565b600082601f83011261099357600080fd5b81356109a3848260208601610944565b91505092915050565b6000602082840312156109be57600080fd5b600082013567ffffffffffffffff8111156109d857600080fd5b6109e484828501610982565b91505092915050565b6109f681610f7f565b82525050565b6000610a0782610f58565b610a118185610f63565b9350610a21818560208601610fca565b610a2a81611105565b840191505092915050565b6000610a4082610f58565b610a4a8185610f74565b9350610a5a818560208601610fca565b80840191505092915050565b60008154610a7381610ffd565b610a7d8186610f74565b94506001821660008114610a985760018114610aa957610adc565b60ff19831686528186019350610adc565b610ab285610f43565b60005b83811015610ad457815481890152600182019150602081019050610ab5565b838801955050505b50505092915050565b6000610af2601983610f63565b91507f43616e64696461746520646f6573206e6f7420657869737421000000000000006000830152602082019050919050565b6000610b32602383610f63565b91507f4f6e6c7920746865206d616e616765722063616e20776974686472617720667560008301527f6e647300000000000000000000000000000000000000000000000000000000006020830152604082019050919050565b6000610b98602183610f63565b91507f416464696e6720612063616e64696461746520636f73747320302e303120455460008301527f48000000000000000000000000000000000000000000000000000000000000006020830152604082019050919050565b6000610bfe602983610f63565b91507f4f6e6c7920746865206d616e616765722063616e2064657465726d696e65207460008301527f68652077696e6e657200000000000000000000000000000000000000000000006020830152604082019050919050565b6000610c64601983610f63565b91507f43616e64696461746520616c72656164792065786973747321000000000000006000830152602082019050919050565b6000610ca4602383610f63565b91507f4f6e6c7920746865206d616e616765722063616e206164642063616e6469646160008301527f74657300000000000000000000000000000000000000000000000000000000006020830152604082019050919050565b6000610d0a601683610f63565b91507f596f75206861766520616c726561647920766f746564000000000000000000006000830152602082019050919050565b610d4681610fb1565b82525050565b6000610d588284610a35565b915081905092915050565b6000610d6f8284610a66565b915081905092915050565b6000602082019050610d8f60008301846109ed565b92915050565b60006020820190508181036000830152610daf81846109fc565b905092915050565b60006040820190508181036000830152610dd181856109fc565b9050610de060208301846109ed565b9392505050565b60006020820190508181036000830152610e0081610ae5565b9050919050565b60006020820190508181036000830152610e2081610b25565b9050919050565b60006020820190508181036000830152610e4081610b8b565b9050919050565b60006020820190508181036000830152610e6081610bf1565b9050919050565b60006020820190508181036000830152610e8081610c57565b9050919050565b60006020820190508181036000830152610ea081610c97565b9050919050565b60006020820190508181036000830152610ec081610cfd565b9050919050565b6000602082019050610edc6000830184610d3d565b92915050565b6000604051905081810181811067ffffffffffffffff82111715610f0957610f086110d6565b5b8060405250919050565b600067ffffffffffffffff821115610f2e57610f2d6110d6565b5b601f19601f8301169050602081019050919050565b60008190508160005260206000209050919050565b600081519050919050565b600082825260208201905092915050565b600081905092915050565b6000610f8a82610f91565b9050919050565b600073ffffffffffffffffffffffffffffffffffffffff82169050919050565b6000819050919050565b82818337600083830152505050565b60005b83811015610fe8578082015181840152602081019050610fcd565b83811115610ff7576000848401525b50505050565b6000600282049050600182168061101557607f821691505b60208210811415611029576110286110a7565b5b50919050565b600061103a82610fb1565b91507fffffffffffffffffffffffffffffffffffffffffffffffffffffffffffffffff82141561106d5761106c611078565b5b600182019050919050565b7f4e487b7100000000000000000000000000000000000000000000000000000000600052601160045260246000fd5b7f4e487b7100000000000000000000000000000000000000000000000000000000600052602260045260246000fd5b7f4e487b7100000000000000000000000000000000000000000000000000000000600052604160045260246000fd5b6000601f19601f830116905091905056fea2646970667358221220978a62637523c85c49fea6891fa5acf2e869dcea8bf117bc6bfe2b14c663787d64736f6c63430008000033",
  "immutableReferences": {},
  "source": "// SPDX-License-Identifier: MIT\r\npragma solidity ^0.8.0;\r\n\r\ncontract Voting {\r\n    address public manager;\r\n    \r\n    struct Candidate {\r\n        string name;\r\n        uint voteCount;\r\n    }\r\n    \r\n    mapping(string => Candidate) private candidates;\r\n    mapping(address => bool) private hasVoted;\r\n    string[] private candidateNames;\r\n\r\n    event CandidateAdded(string name);\r\n    event Voted(string candidate, address voter);\r\n    event WinnerDeclared(string winner);\r\n\r\n    constructor() {\r\n        manager = msg.sender;\r\n    }\r\n\r\n    //   ( )\r\n    function addCandidate(string memory name) public payable {\r\n        require(msg.sender == manager, \"Only the manager can add candidates\");\r\n        require(bytes(candidates[name].name).length == 0, \"Candidate already exists!\");\r\n        require(msg.value >= 0.01 ether, \"Adding a candidate costs 0.01 ETH\");\r\n\r\n        candidates[name] = Candidate(name, 0);\r\n        candidateNames.push(name);\r\n\r\n        emit CandidateAdded(name);\r\n    }\r\n\r\n    //  (  )\r\n    function vote(string memory candidate) public {\r\n        require(!hasVoted[msg.sender], \"You have already voted\");\r\n        require(bytes(candidates[candidate].name).length != 0, \"Candidate does not exist!\");\r\n\r\n        candidates[candidate].voteCount++;\r\n        hasVoted[msg.sender] = true;\r\n\r\n        emit Voted(candidate, msg.sender);\r\n    }\r\n\r\n    //  ( )\r\n    function getWinner() public view returns (string memory) {\r\n        require(msg.sender == manager, \"Only the manager can determine the winner\");\r\n\r\n        string memory winner;\r\n        uint highestVotes = 0;\r\n\r\n        for (uint i = 0; i < candidateNames.length; i++) {\r\n            if (candidates[candidateNames[i]].voteCount > highestVotes) {\r\n                highestVotes = candidates[candidateNames[i]].voteCount;\r\n                winner = candidateNames[i];\r\n            }\r\n        }\r\n\r\n        return winner;\r\n    }\r\n\r\n    //   \r\n    function getBalance() public view returns (uint) {\r\n        return address(this).balance;\r\n    }\r\n\r\n    //   ( )\r\n    function withdraw() public {\r\n        require(msg.sender == manager, \"Only the manager can withdraw funds\");\r\n        payable(manager).transfer(address(this).balance);\r\n    }\r\n}\r\n",
  "sourcePath": "C:\\Users\\hiviz\\voting\\contracts\\Voting.sol",
  "compiler": {
    "name": "solc",
    "version": "0.8.0+commit.c7dfd78e.Emscripten.clang"
  },
  "schemaVersion": "3.4.16",
  "updatedAt": "2025-02-27T21:19:16.918Z",
  "networkType": "ethereum",
  "devdoc": {
    "kind": "dev",
    "methods": {},
    "version": 1
  },
  "userdoc": {
    "kind": "user",
    "methods": {},
    "version": 1
  }
}